{
  "transactions": [
    {
      "hash": "0xeeafaefade53afe15f5e05590cef2dbc408a64857d8a182a1dea8ff871f75ef8",
      "transactionType": "CALL",
      "contractName": null,
      "contractAddress": "0x8103b0a8a00be2ddc778e6e7eaa21791cd364625",
      "function": "createSubscription()",
      "arguments": [],
      "transaction": {
        "from": "0x0b7313c89cbac234b0a1c06eba8e617ab72042c2",
        "to": "0x8103b0a8a00be2ddc778e6e7eaa21791cd364625",
        "gas": "0x1558c",
        "value": "0x0",
        "input": "0xa21a23e4",
        "nonce": "0x8",
        "chainId": "0xaa36a7"
      },
      "additionalContracts": [],
      "isFixedGasLimit": false
    },
    {
      "hash": "0x7822d14970d2aef0b7bc1e064e6bfe0f7f475b935a5afbcdab0cc4db208e3c54",
      "transactionType": "CALL",
      "contractName": "LinkToken",
      "contractAddress": "0x779877a7b0d9e8603169ddbd7836e478b4624789",
      "function": "transferAndCall(address,uint256,bytes)",
      "arguments": [
        "0x8103B0A8A00be2DDC778e6e7eaa21791Cd364625",
        "10000000000000000",
        "0x0000000000000000000000000000000000000000000000000000000000002e8f"
      ],
      "transaction": {
        "from": "0x0b7313c89cbac234b0a1c06eba8e617ab72042c2",
        "to": "0x779877a7b0d9e8603169ddbd7836e478b4624789",
        "gas": "0x19bf1",
        "value": "0x0",
        "input": "0x4000aea00000000000000000000000008103b0a8a00be2ddc778e6e7eaa21791cd364625000000000000000000000000000000000000000000000000002386f26fc10000000000000000000000000000000000000000000000000000000000000000006000000000000000000000000000000000000000000000000000000000000000200000000000000000000000000000000000000000000000000000000000002e8f",
        "nonce": "0x9",
        "chainId": "0xaa36a7"
      },
      "additionalContracts": [],
      "isFixedGasLimit": false
    },
    {
      "hash": "0xb1a7f18232d8b948c833c4cfe67168f5b97a5cef090acfd94b6cc5a35efee364",
      "transactionType": "CREATE",
      "contractName": null,
      "contractAddress": "0xaba436dc6bc7e18d49a348678affc496bdbc3d06",
      "function": null,
      "arguments": null,
      "transaction": {
        "from": "0x0b7313c89cbac234b0a1c06eba8e617ab72042c2",
        "gas": "0x126fa3",
        "value": "0x0",
        "input": "0x61014060405234801561001157600080fd5b5060405161113a38038061113a833981016040819052610030916101e1565b8333806000816100875760405162461bcd60e51b815260206004820152601860248201527f43616e6e6f7420736574206f776e657220746f207a65726f000000000000000060448201526064015b60405180910390fd5b600080546001600160a01b0319166001600160a01b03848116919091179091558116156100b7576100b781610138565b5050506001600160a01b0381166100e15760405163d92e233d60e01b815260040160405180910390fd5b600280546001600160a01b0319166001600160a01b0392831617905560809690965260a09490945242600455919093166101205260c0929092526001600160401b0390911660e05263ffffffff166101005261026c565b336001600160a01b038216036101905760405162461bcd60e51b815260206004820152601760248201527f43616e6e6f74207472616e7366657220746f2073656c66000000000000000000604482015260640161007e565b600180546001600160a01b0319166001600160a01b0383811691821790925560008054604051929316917fed8889f560326eb138920d842192f0eb3dd22b4f139c87a2c57538e05bae12789190a350565b60008060008060008060c087890312156101fa57600080fd5b86516020880151604089015191975095506001600160a01b038116811461022057600080fd5b6060880151608089015191955093506001600160401b038116811461024457600080fd5b60a088015190925063ffffffff8116811461025e57600080fd5b809150509295509295509295565b60805160a05160c05160e0516101005161012051610e796102c1600039600061054e01526000610512015260006104d9015260006104b3015260006105f701526000818160fc01526103340152610e796000f3fe6080604052600436106100e85760003560e01c8063473f1ddc1161008a5780638ea98117116100595780638ea981171461025d5780639eccacf61461027d578063e55ae4e81461029d578063f2fde38b146102bd57600080fd5b8063473f1ddc146101ca5780636e04ff0d146101fc57806379ba50971461022a5780638da5cb5b1461023f57600080fd5b80631fe543e3116100c65780631fe543e31461016b5780632cfcc5391461018d57806337899770146101955780634585e33b146101aa57600080fd5b806309bc33a7146100ed5780630ea3df381461012f578063115cbaf514610144575b600080fd5b3480156100f957600080fd5b507f00000000000000000000000000000000000000000000000000000000000000005b6040519081526020015b60405180910390f35b34801561013b57600080fd5b5060035461011c565b34801561015057600080fd5b50600554600160a01b900460ff166040516101269190610b4a565b34801561017757600080fd5b5061018b610186366004610b72565b6102dd565b005b61018b610332565b3480156101a157600080fd5b5060045461011c565b3480156101b657600080fd5b5061018b6101c5366004610bf1565b61041f565b3480156101d657600080fd5b506005546001600160a01b03165b6040516001600160a01b039091168152602001610126565b34801561020857600080fd5b5061021c610217366004610c79565b6105ef565b604051610126929190610d2a565b34801561023657600080fd5b5061018b61069c565b34801561024b57600080fd5b506000546001600160a01b03166101e4565b34801561026957600080fd5b5061018b610278366004610d82565b610746565b34801561028957600080fd5b506002546101e4906001600160a01b031681565b3480156102a957600080fd5b506101e46102b8366004610db2565b610838565b3480156102c957600080fd5b5061018b6102d8366004610d82565b610868565b6002546001600160a01b031633146103225760025460405163073e64fd60e21b81523360048201526001600160a01b0390911660248201526044015b60405180910390fd5b61032d83838361087c565b505050565b7f00000000000000000000000000000000000000000000000000000000000000003410156103735760405163246b904d60e01b815260040160405180910390fd5b6000600554600160a01b900460ff16600181111561039357610393610b34565b146103b15760405163050955c760e21b815260040160405180910390fd5b6003805460018101825560009182527fc2575a0e9e593c00f959f8c92f12db2869c3395a3b0502d05e2516446f71f85b0180546001600160a01b0319163390811790915560405190917f819fbd717c9d0b421352c5116a644ca68ba176960c33f406f08d98a27370ca2791a2565b6000610439604051806020016040528060008152506105ef565b5090508061048f57600354600554479190600160a01b900460ff16600181111561046557610465610b34565b604051632c2193d560e11b8152600481019390935260248301919091526044820152606401610319565b60058054600160a01b60ff60a01b199091161790556040516305d3b1d360e41b81527f000000000000000000000000000000000000000000000000000000000000000060048201527f000000000000000000000000000000000000000000000000000000000000000067ffffffffffffffff1660248201526003604482018190527f000000000000000000000000000000000000000000000000000000000000000063ffffffff16606483015260848201526000906001600160a01b037f00000000000000000000000000000000000000000000000000000000000000001690635d3b1d309060a4016020604051808303816000875af1158015610597573d6000803e3d6000fd5b505050506040513d601f19601f820116820180604052508101906105bb9190610dcb565b60405190915081907fcd6e45c8998311cab7e9d4385596cac867e20a0587194b954fa3a731c93ce78b90600090a250505050565b6000606060007f0000000000000000000000000000000000000000000000000000000000000000600454426106249190610de4565b101590506000600560149054906101000a900460ff16600181111561064b5761064b610b34565b600354901591504715159015158380156106625750825b801561066b5750815b80156106745750805b60408051808201909152600381526203078360ec1b6020820152909890975095505050505050565b6001546001600160a01b031633146106ef5760405162461bcd60e51b815260206004820152601660248201527526bab9ba10313290383937b837b9b2b21037bbb732b960511b6044820152606401610319565b60008054336001600160a01b0319808316821784556001805490911690556040516001600160a01b0390921692909183917f8be0079c531659141344cd1fd0a4f28419497f9722a3daafe3b4186f6b6457e091a350565b6000546001600160a01b0316331480159061076c57506002546001600160a01b03163314155b156107bd57336107846000546001600160a01b031690565b60025460405163061db9c160e01b81526001600160a01b0393841660048201529183166024830152919091166044820152606401610319565b6001600160a01b0381166107e45760405163d92e233d60e01b815260040160405180910390fd5b600280546001600160a01b0319166001600160a01b0383169081179091556040519081527fd1a6a14209a385a964d036e404cb5cfb71f4000cdb03c9366292430787261be69060200160405180910390a150565b60006003828154811061084d5761084d610e0b565b6000918252602090912001546001600160a01b031692915050565b6108706109bc565b61087981610a11565b50565b6003546000908383838161089257610892610e0b565b905060200201356108a39190610e21565b90506000600382815481106108ba576108ba610e0b565b600091825260208083209190910154600580546001600160a81b0319166001600160a01b039092169182179055604080519384529183019182905291519192506109079160039190610aba565b50426004556040516001600160a01b038216907fb112587e57bfa970257f3d54fc52859c6300f6bd7a982462c320fed45c2530ed90600090a26000816001600160a01b03164760405160006040518083038185875af1925050503d806000811461098d576040519150601f19603f3d011682016040523d82523d6000602084013e610992565b606091505b50509050806109b45760405163a1d04b3960e01b815260040160405180910390fd5b505050505050565b6000546001600160a01b03163314610a0f5760405162461bcd60e51b815260206004820152601660248201527527b7363c9031b0b63630b1363290313c9037bbb732b960511b6044820152606401610319565b565b336001600160a01b03821603610a695760405162461bcd60e51b815260206004820152601760248201527f43616e6e6f74207472616e7366657220746f2073656c660000000000000000006044820152606401610319565b600180546001600160a01b0319166001600160a01b0383811691821790925560008054604051929316917fed8889f560326eb138920d842192f0eb3dd22b4f139c87a2c57538e05bae12789190a350565b828054828255906000526020600020908101928215610b0f579160200282015b82811115610b0f57825182546001600160a01b0319166001600160a01b03909116178255602090920191600190910190610ada565b50610b1b929150610b1f565b5090565b5b80821115610b1b5760008155600101610b20565b634e487b7160e01b600052602160045260246000fd5b6020810160028310610b6c57634e487b7160e01b600052602160045260246000fd5b91905290565b600080600060408486031215610b8757600080fd5b83359250602084013567ffffffffffffffff80821115610ba657600080fd5b818601915086601f830112610bba57600080fd5b813581811115610bc957600080fd5b8760208260051b8501011115610bde57600080fd5b6020830194508093505050509250925092565b60008060208385031215610c0457600080fd5b823567ffffffffffffffff80821115610c1c57600080fd5b818501915085601f830112610c3057600080fd5b813581811115610c3f57600080fd5b866020828501011115610c5157600080fd5b60209290920196919550909350505050565b634e487b7160e01b600052604160045260246000fd5b600060208284031215610c8b57600080fd5b813567ffffffffffffffff80821115610ca357600080fd5b818401915084601f830112610cb757600080fd5b813581811115610cc957610cc9610c63565b604051601f8201601f19908116603f01168101908382118183101715610cf157610cf1610c63565b81604052828152876020848701011115610d0a57600080fd5b826020860160208301376000928101602001929092525095945050505050565b821515815260006020604081840152835180604085015260005b81811015610d6057858101830151858201606001528201610d44565b506000606082860101526060601f19601f830116850101925050509392505050565b600060208284031215610d9457600080fd5b81356001600160a01b0381168114610dab57600080fd5b9392505050565b600060208284031215610dc457600080fd5b5035919050565b600060208284031215610ddd57600080fd5b5051919050565b81810381811115610e0557634e487b7160e01b600052601160045260246000fd5b92915050565b634e487b7160e01b600052603260045260246000fd5b600082610e3e57634e487b7160e01b600052601260045260246000fd5b50069056fea26469706673582212207c3148a9a6bf98fbb8a912bfc4f3e7e8d8742beaa14e9225b8f61eb350c7a94f64736f6c63430008130033000000000000000000000000000000000000000000000000002386f26fc10000000000000000000000000000000000000000000000000000000000000000001e0000000000000000000000008103b0a8a00be2ddc778e6e7eaa21791cd364625474e34a077df58807dbe9c96d3c009b23b3c6d0cce433e59bbf5b34f823bc56c0000000000000000000000000000000000000000000000000000000000002e8f000000000000000000000000000000000000000000000000000000000007a120",
        "nonce": "0xa",
        "chainId": "0xaa36a7"
      },
      "additionalContracts": [],
      "isFixedGasLimit": false
    },
    {
      "hash": "0xb5cef1a2a63f1e3f9f6ae0e7723a0540cffe70332268373b0d2d07c0805dbefa",
      "transactionType": "CALL",
      "contractName": null,
      "contractAddress": "0x8103b0a8a00be2ddc778e6e7eaa21791cd364625",
      "function": "addConsumer(uint64,address)",
      "arguments": [
        "11919",
        "0xAba436Dc6Bc7e18D49A348678AFfC496bDbc3D06"
      ],
      "transaction": {
        "from": "0x0b7313c89cbac234b0a1c06eba8e617ab72042c2",
        "to": "0x8103b0a8a00be2ddc778e6e7eaa21791cd364625",
        "gas": "0x21eb0",
        "value": "0x0",
        "input": "0x7341c10c0000000000000000000000000000000000000000000000000000000000002e8f000000000000000000000000aba436dc6bc7e18d49a348678affc496bdbc3d06",
        "nonce": "0xb",
        "chainId": "0xaa36a7"
      },
      "additionalContracts": [],
      "isFixedGasLimit": false
    }
  ],
  "receipts": [
    {
      "status": "0x1",
      "cumulativeGasUsed": "0xba4cf5",
      "logs": [
        {
          "address": "0x8103b0a8a00be2ddc778e6e7eaa21791cd364625",
          "topics": [
            "0x464722b4166576d3dcbba877b999bc35cf911f4eaf434b7eba68fa113951d0bf",
            "0x0000000000000000000000000000000000000000000000000000000000002e8f"
          ],
          "data": "0x0000000000000000000000000b7313c89cbac234b0a1c06eba8e617ab72042c2",
          "blockHash": "0x3b78b5f2a776a852ea72acd901a0a898e2ea51850acf8826dbec94722f45d675",
          "blockNumber": "0x5dc900",
          "transactionHash": "0xeeafaefade53afe15f5e05590cef2dbc408a64857d8a182a1dea8ff871f75ef8",
          "transactionIndex": "0x49",
          "logIndex": "0x86",
          "removed": false
        }
      ],
      "logsBloom": "0x0000000000000000000001000000000000000000000000000000000000000000010000000000000000000000000000000000000000000000000000000000000000000000000000000000000000000000000000000000000000000000000000000000100000000000000000000000000000000000000000000000000000000000000000000c000020000000000000000000000000000000400000000000000000000000000000000000000000000000000000000000000000000000000000000000000000000000200000000000000000000000000000000000000000000000000000000000000000000000000100000000000000000000000000000000000000",
      "type": "0x2",
      "transactionHash": "0xeeafaefade53afe15f5e05590cef2dbc408a64857d8a182a1dea8ff871f75ef8",
      "transactionIndex": "0x49",
      "blockHash": "0x3b78b5f2a776a852ea72acd901a0a898e2ea51850acf8826dbec94722f45d675",
      "blockNumber": "0x5dc900",
      "gasUsed": "0xe98a",
      "effectiveGasPrice": "0xb9a2516",
      "from": "0x0b7313c89cbac234b0a1c06eba8e617ab72042c2",
      "to": "0x8103b0a8a00be2ddc778e6e7eaa21791cd364625",
      "contractAddress": null
    },
    {
      "status": "0x1",
      "cumulativeGasUsed": "0xbb7733",
      "logs": [
        {
          "address": "0x779877a7b0d9e8603169ddbd7836e478b4624789",
          "topics": [
            "0xddf252ad1be2c89b69c2b068fc378daa952ba7f163c4a11628f55a4df523b3ef",
            "0x0000000000000000000000000b7313c89cbac234b0a1c06eba8e617ab72042c2",
            "0x0000000000000000000000008103b0a8a00be2ddc778e6e7eaa21791cd364625"
          ],
          "data": "0x000000000000000000000000000000000000000000000000002386f26fc10000",
          "blockHash": "0x3b78b5f2a776a852ea72acd901a0a898e2ea51850acf8826dbec94722f45d675",
          "blockNumber": "0x5dc900",
          "transactionHash": "0x7822d14970d2aef0b7bc1e064e6bfe0f7f475b935a5afbcdab0cc4db208e3c54",
          "transactionIndex": "0x4a",
          "logIndex": "0x87",
          "removed": false
        },
        {
          "address": "0x779877a7b0d9e8603169ddbd7836e478b4624789",
          "topics": [
            "0xe19260aff97b920c7df27010903aeb9c8d2be5d310a2c67824cf3f15396e4c16",
            "0x0000000000000000000000000b7313c89cbac234b0a1c06eba8e617ab72042c2",
            "0x0000000000000000000000008103b0a8a00be2ddc778e6e7eaa21791cd364625"
          ],
          "data": "0x000000000000000000000000000000000000000000000000002386f26fc10000000000000000000000000000000000000000000000000000000000000000004000000000000000000000000000000000000000000000000000000000000000200000000000000000000000000000000000000000000000000000000000002e8f",
          "blockHash": "0x3b78b5f2a776a852ea72acd901a0a898e2ea51850acf8826dbec94722f45d675",
          "blockNumber": "0x5dc900",
          "transactionHash": "0x7822d14970d2aef0b7bc1e064e6bfe0f7f475b935a5afbcdab0cc4db208e3c54",
          "transactionIndex": "0x4a",
          "logIndex": "0x88",
          "removed": false
        },
        {
          "address": "0x8103b0a8a00be2ddc778e6e7eaa21791cd364625",
          "topics": [
            "0xd39ec07f4e209f627a4c427971473820dc129761ba28de8906bd56f57101d4f8",
            "0x0000000000000000000000000000000000000000000000000000000000002e8f"
          ],
          "data": "0x0000000000000000000000000000000000000000000000000000000000000000000000000000000000000000000000000000000000000000002386f26fc10000",
          "blockHash": "0x3b78b5f2a776a852ea72acd901a0a898e2ea51850acf8826dbec94722f45d675",
          "blockNumber": "0x5dc900",
          "transactionHash": "0x7822d14970d2aef0b7bc1e064e6bfe0f7f475b935a5afbcdab0cc4db208e3c54",
          "transactionIndex": "0x4a",
          "logIndex": "0x89",
          "removed": false
        }
      ],
      "logsBloom": "0x0000001400000000000000000000000000000000000000020000000002000000000000000000800000000000000000000000000000000000000000000000000000000000000000000000000800010000000000000000000000002000000000000000100000000000000000000000000000000000400000000000001000000000000000000c000020000000000000800010000020000000400000000000000000000000000000000000000000000000010000000000000400000400000000000000000002000000000000000000000000000000000000000100000000000000000000000000000000000000000100000000000000000000000000000000000000",
      "type": "0x2",
      "transactionHash": "0x7822d14970d2aef0b7bc1e064e6bfe0f7f475b935a5afbcdab0cc4db208e3c54",
      "transactionIndex": "0x4a",
      "blockHash": "0x3b78b5f2a776a852ea72acd901a0a898e2ea51850acf8826dbec94722f45d675",
      "blockNumber": "0x5dc900",
      "gasUsed": "0x12a3e",
      "effectiveGasPrice": "0xb9a2516",
      "from": "0x0b7313c89cbac234b0a1c06eba8e617ab72042c2",
      "to": "0x779877a7b0d9e8603169ddbd7836e478b4624789",
      "contractAddress": null
    },
    {
      "status": "0x1",
      "cumulativeGasUsed": "0xe1ac58",
      "logs": [],
      "logsBloom": "0x00000000000000000000000000000000000000000000000000000000000000000000000000000000000000000000000000000000000000000000000000000000000000000000000000000000000000000000000000000000000000000000000000000000000000000000000000000000000000000000000000000000000000000000000000000000000000000000000000000000000000000000000000000000000000000000000000000000000000000000000000000000000000000000000000000000000000000000000000000000000000000000000000000000000000000000000000000000000000000000000000000000000000000000000000000000",
      "type": "0x2",
      "transactionHash": "0xb1a7f18232d8b948c833c4cfe67168f5b97a5cef090acfd94b6cc5a35efee364",
      "transactionIndex": "0x43",
      "blockHash": "0xe83e04c83a45519305a25ccba58ca4ce4238a4aa09a222c6ffeb5ace210da1c3",
      "blockNumber": "0x5dc902",
      "gasUsed": "0xe2f9e",
      "effectiveGasPrice": "0xb8eff01",
      "from": "0x0b7313c89cbac234b0a1c06eba8e617ab72042c2",
      "to": null,
      "contractAddress": "0xaba436dc6bc7e18d49a348678affc496bdbc3d06"
    },
    {
      "status": "0x1",
      "cumulativeGasUsed": "0xe31f6a",
      "logs": [
        {
          "address": "0x8103b0a8a00be2ddc778e6e7eaa21791cd364625",
          "topics": [
            "0x43dc749a04ac8fb825cbd514f7c0e13f13bc6f2ee66043b76629d51776cff8e0",
            "0x0000000000000000000000000000000000000000000000000000000000002e8f"
          ],
          "data": "0x000000000000000000000000aba436dc6bc7e18d49a348678affc496bdbc3d06",
          "blockHash": "0xe83e04c83a45519305a25ccba58ca4ce4238a4aa09a222c6ffeb5ace210da1c3",
          "blockNumber": "0x5dc902",
          "transactionHash": "0xb5cef1a2a63f1e3f9f6ae0e7723a0540cffe70332268373b0d2d07c0805dbefa",
          "transactionIndex": "0x44",
          "logIndex": "0x6b",
          "removed": false
        }
      ],
      "logsBloom": "0x0000000000000000000000000000000000000000000000000000000000000000000000000000000000000000000000000000000000000000000000000000000000000000000000000000000000000000000000000000000000000000000000000000100000008000000000000000000000000000000000000000000000000000000000000c000020000000000000000000000000000000400000000000000000000000000000000000000080000000000000000000000000000000000000000000000000000000000000000000000000000000000000000000020000000000000000000000000000000000000100000000000000000000000000000000000000",
      "type": "0x2",
      "transactionHash": "0xb5cef1a2a63f1e3f9f6ae0e7723a0540cffe70332268373b0d2d07c0805dbefa",
      "transactionIndex": "0x44",
      "blockHash": "0xe83e04c83a45519305a25ccba58ca4ce4238a4aa09a222c6ffeb5ace210da1c3",
      "blockNumber": "0x5dc902",
      "gasUsed": "0x17312",
      "effectiveGasPrice": "0xb8eff01",
      "from": "0x0b7313c89cbac234b0a1c06eba8e617ab72042c2",
      "to": "0x8103b0a8a00be2ddc778e6e7eaa21791cd364625",
      "contractAddress": null
    }
  ],
  "libraries": [],
  "pending": [],
  "returns": {
    "1": {
      "internal_type": "contract HelperConfig",
      "value": "0xC7f2Cf4845C6db0e1a1e91ED41Bcd0FcC1b0E141"
    },
    "0": {
      "internal_type": "contract Raffle",
      "value": "0xAba436Dc6Bc7e18D49A348678AFfC496bDbc3D06"
    }
  },
  "timestamp": 1718871676,
  "chain": 11155111,
  "commit": "13ff40f"
}